{
  "_format": "hh-sol-artifact-1",
  "contractName": "OSSFunding",
  "sourceName": "contracts/OSSFunding.sol",
  "abi": [
    {
      "inputs": [
        {
          "internalType": "address",
          "name": "freeMintTokenAddress",
          "type": "address"
        }
      ],
      "stateMutability": "nonpayable",
      "type": "constructor"
    },
    {
      "anonymous": false,
      "inputs": [
        {
          "indexed": false,
          "internalType": "uint256",
          "name": "amount",
          "type": "uint256"
        },
        {
          "indexed": false,
          "internalType": "address",
          "name": "contributor",
          "type": "address"
        },
        {
          "indexed": true,
          "internalType": "address",
          "name": "maintainer",
          "type": "address"
        }
      ],
      "name": "ContributionReceived",
      "type": "event"
    },
    {
      "anonymous": false,
      "inputs": [
        {
          "indexed": true,
          "internalType": "string",
          "name": "repo",
          "type": "string"
        },
        {
          "indexed": false,
          "internalType": "address",
          "name": "maintainer",
          "type": "address"
        }
      ],
      "name": "GithubRepoAdded",
      "type": "event"
    },
    {
      "stateMutability": "payable",
      "type": "fallback"
    },
    {
      "inputs": [
        {
          "internalType": "string",
          "name": "repo",
          "type": "string"
        }
      ],
      "name": "contributeToProject",
      "outputs": [
        {
          "internalType": "address",
          "name": "",
          "type": "address"
        }
      ],
      "stateMutability": "payable",
      "type": "function"
    },
    {
      "inputs": [
        {
          "internalType": "address",
          "name": "",
          "type": "address"
        },
        {
          "internalType": "string",
          "name": "",
          "type": "string"
        }
      ],
      "name": "contribution",
      "outputs": [
        {
          "internalType": "address",
          "name": "contributor",
          "type": "address"
        },
        {
          "internalType": "uint256",
          "name": "total_contributions",
          "type": "uint256"
        }
      ],
      "stateMutability": "view",
      "type": "function"
    },
    {
      "inputs": [],
      "name": "freeMintToken",
      "outputs": [
        {
          "internalType": "contract IFreeMintToken",
          "name": "",
          "type": "address"
        }
      ],
      "stateMutability": "view",
      "type": "function"
    },
    {
      "inputs": [
        {
          "internalType": "string",
          "name": "repo",
          "type": "string"
        }
      ],
      "name": "getProjectMaintainer",
      "outputs": [
        {
          "internalType": "address",
          "name": "",
          "type": "address"
        },
        {
          "internalType": "uint256",
          "name": "",
          "type": "uint256"
        }
      ],
      "stateMutability": "view",
      "type": "function"
    },
    {
      "inputs": [
        {
          "internalType": "string",
          "name": "",
          "type": "string"
        }
      ],
      "name": "github_repo",
      "outputs": [
        {
          "internalType": "address payable",
          "name": "maintainer",
          "type": "address"
        },
        {
          "internalType": "bool",
          "name": "registered",
          "type": "bool"
        },
        {
          "internalType": "string",
          "name": "github_repo",
          "type": "string"
        },
        {
          "internalType": "uint256",
          "name": "stored_value",
          "type": "uint256"
        }
      ],
      "stateMutability": "view",
      "type": "function"
    },
    {
      "inputs": [
        {
          "internalType": "string",
          "name": "repo",
          "type": "string"
        },
        {
          "internalType": "address",
          "name": "maintainer",
          "type": "address"
        }
      ],
      "name": "liquidateProject",
      "outputs": [
        {
          "internalType": "string",
          "name": "",
          "type": "string"
        },
        {
          "internalType": "address",
          "name": "",
          "type": "address"
        },
        {
          "internalType": "uint256",
          "name": "",
          "type": "uint256"
        }
      ],
      "stateMutability": "payable",
      "type": "function"
    },
    {
      "inputs": [
        {
          "internalType": "string",
          "name": "repo",
          "type": "string"
        },
        {
          "internalType": "address",
          "name": "maintainer",
          "type": "address"
        }
      ],
      "name": "registerProject",
      "outputs": [],
      "stateMutability": "nonpayable",
      "type": "function"
    },
    {
      "stateMutability": "payable",
      "type": "receive"
    }
  ],
  "bytecode": "0x60806040523480156200001157600080fd5b5060405162001a9138038062001a91833981810160405281019062000037919062000129565b336000806101000a81548173ffffffffffffffffffffffffffffffffffffffff021916908373ffffffffffffffffffffffffffffffffffffffff16021790555080600160006101000a81548173ffffffffffffffffffffffffffffffffffffffff021916908373ffffffffffffffffffffffffffffffffffffffff160217905550506200015b565b600080fd5b600073ffffffffffffffffffffffffffffffffffffffff82169050919050565b6000620000f182620000c4565b9050919050565b6200010381620000e4565b81146200010f57600080fd5b50565b6000815190506200012381620000f8565b92915050565b600060208284031215620001425762000141620000bf565b5b6000620001528482850162000112565b91505092915050565b611926806200016b6000396000f3fe6080604052600436106100745760003560e01c8063402aa35d1161004e578063402aa35d14610116578063687d3ae7146101545780638a2d56f81461017f5780638f27b020146101af5761007b565b8063193154f31461007d5780631d02f21b146100af57806336a09b7d146100ed5761007b565b3661007b57005b005b61009760048036038101906100929190610e13565b6101ef565b6040516100a693929190610f16565b60405180910390f35b3480156100bb57600080fd5b506100d660048036038101906100d19190610f54565b61055a565b6040516100e4929190610f9d565b60405180910390f35b3480156100f957600080fd5b50610114600480360381019061010f9190610e13565b6105ca565b005b34801561012257600080fd5b5061013d60048036038101906101389190610fc6565b61076d565b60405161014b929190610f9d565b60405180910390f35b34801561016057600080fd5b506101696107d4565b6040516101769190611081565b60405180910390f35b61019960048036038101906101949190610f54565b6107fa565b6040516101a6919061109c565b60405180910390f35b3480156101bb57600080fd5b506101d660048036038101906101d19190610f54565b610b60565b6040516101e694939291906110f3565b60405180910390f35b60606000808373ffffffffffffffffffffffffffffffffffffffff1660028660405161021b919061117b565b908152602001604051809103902060000160009054906101000a900473ffffffffffffffffffffffffffffffffffffffff1673ffffffffffffffffffffffffffffffffffffffff16146102a3576040517f08c379a000000000000000000000000000000000000000000000000000000000815260040161029a90611204565b60405180910390fd5b60006002866040516102b5919061117b565b90815260200160405180910390206002015411610307576040517f08c379a00000000000000000000000000000000000000000000000000000000081526004016102fe90611296565b60405180910390fd5b6000600286604051610319919061117b565b90815260200160405180910390206001018054610335906112e5565b80601f0160208091040260200160405190810160405280929190818152602001828054610361906112e5565b80156103ae5780601f10610383576101008083540402835291602001916103ae565b820191906000526020600020905b81548152906001019060200180831161039157829003601f168201915b5050505050905060006002876040516103c7919061117b565b908152602001604051809103902060000160009054906101000a900473ffffffffffffffffffffffffffffffffffffffff169050600060028860405161040d919061117b565b90815260200160405180910390206002015490506000600289604051610433919061117b565b908152602001604051809103902060000160009054906101000a900473ffffffffffffffffffffffffffffffffffffffff1673ffffffffffffffffffffffffffffffffffffffff168260405161048890611347565b60006040518083038185875af1925050503d80600081146104c5576040519150601f19603f3d011682016040523d82523d6000602084013e6104ca565b606091505b505090508061050e576040517f08c379a0000000000000000000000000000000000000000000000000000000008152600401610505906113ce565b60405180910390fd5b8160028a60405161051f919061117b565b9081526020016040518091039020600201600082825461053f919061141d565b92505081905550838383965096509650505050509250925092565b60008060028360405161056d919061117b565b908152602001604051809103902060000160009054906101000a900473ffffffffffffffffffffffffffffffffffffffff166002846040516105af919061117b565b90815260200160405180910390206002015491509150915091565b6002826040516105da919061117b565b908152602001604051809103902060000160149054906101000a900460ff1615610639576040517f08c379a00000000000000000000000000000000000000000000000000000000081526004016106309061149d565b60405180910390fd5b60405180608001604052808273ffffffffffffffffffffffffffffffffffffffff1681526020016001151581526020018381526020016000815250600283604051610684919061117b565b908152602001604051809103902060008201518160000160006101000a81548173ffffffffffffffffffffffffffffffffffffffff021916908373ffffffffffffffffffffffffffffffffffffffff16021790555060208201518160000160146101000a81548160ff021916908315150217905550604082015181600101908161070e919061165f565b50606082015181600201559050508160405161072a919061117b565b60405180910390207f7cfd4c66c50cb6e3ea99ebcfabede034962bb06bebb5847b221fbc1b7ca0819282604051610761919061109c565b60405180910390a25050565b600360205281600052604060002081805160208101820180518482526020830160208501208183528095505050505050600091509150508060000160009054906101000a900473ffffffffffffffffffffffffffffffffffffffff16908060010154905082565b600160009054906101000a900473ffffffffffffffffffffffffffffffffffffffff1681565b600060028260405161080c919061117b565b908152602001604051809103902060000160149054906101000a900460ff1661086a576040517f08c379a00000000000000000000000000000000000000000000000000000000081526004016108619061177d565b60405180910390fd5b600034116108ad576040517f08c379a00000000000000000000000000000000000000000000000000000000081526004016108a49061180f565b60405180910390fd5b60006002836040516108bf919061117b565b908152602001604051809103902060000160009054906101000a900473ffffffffffffffffffffffffffffffffffffffff16905034600284604051610904919061117b565b90815260200160405180910390206002016000828254610924919061182f565b925050819055506000600360003373ffffffffffffffffffffffffffffffffffffffff1673ffffffffffffffffffffffffffffffffffffffff1681526020019081526020016000208460405161097a919061117b565b9081526020016040518091039020600101549050348161099a919061182f565b905060405180604001604052803373ffffffffffffffffffffffffffffffffffffffff16815260200182815250600360003373ffffffffffffffffffffffffffffffffffffffff1673ffffffffffffffffffffffffffffffffffffffff16815260200190815260200160002085604051610a14919061117b565b908152602001604051809103902060008201518160000160006101000a81548173ffffffffffffffffffffffffffffffffffffffff021916908373ffffffffffffffffffffffffffffffffffffffff160217905550602082015181600101559050508173ffffffffffffffffffffffffffffffffffffffff167fa2834fc0ba6768d12170d412a119635ae5ec7724767f4b12a92ee5b16fdd15ba3433604051610abe929190611863565b60405180910390a2600160009054906101000a900473ffffffffffffffffffffffffffffffffffffffff1673ffffffffffffffffffffffffffffffffffffffff166340c10f193360016040518363ffffffff1660e01b8152600401610b249291906118c7565b600060405180830381600087803b158015610b3e57600080fd5b505af1158015610b52573d6000803e3d6000fd5b505050508192505050919050565b6002818051602081018201805184825260208301602085012081835280955050505050506000915090508060000160009054906101000a900473ffffffffffffffffffffffffffffffffffffffff16908060000160149054906101000a900460ff1690806001018054610bd2906112e5565b80601f0160208091040260200160405190810160405280929190818152602001828054610bfe906112e5565b8015610c4b5780601f10610c2057610100808354040283529160200191610c4b565b820191906000526020600020905b815481529060010190602001808311610c2e57829003601f168201915b5050505050908060020154905084565b6000604051905090565b600080fd5b600080fd5b600080fd5b600080fd5b6000601f19601f8301169050919050565b7f4e487b7100000000000000000000000000000000000000000000000000000000600052604160045260246000fd5b610cc282610c79565b810181811067ffffffffffffffff82111715610ce157610ce0610c8a565b5b80604052505050565b6000610cf4610c5b565b9050610d008282610cb9565b919050565b600067ffffffffffffffff821115610d2057610d1f610c8a565b5b610d2982610c79565b9050602081019050919050565b82818337600083830152505050565b6000610d58610d5384610d05565b610cea565b905082815260208101848484011115610d7457610d73610c74565b5b610d7f848285610d36565b509392505050565b600082601f830112610d9c57610d9b610c6f565b5b8135610dac848260208601610d45565b91505092915050565b600073ffffffffffffffffffffffffffffffffffffffff82169050919050565b6000610de082610db5565b9050919050565b610df081610dd5565b8114610dfb57600080fd5b50565b600081359050610e0d81610de7565b92915050565b60008060408385031215610e2a57610e29610c65565b5b600083013567ffffffffffffffff811115610e4857610e47610c6a565b5b610e5485828601610d87565b9250506020610e6585828601610dfe565b9150509250929050565b600081519050919050565b600082825260208201905092915050565b60005b83811015610ea9578082015181840152602081019050610e8e565b60008484015250505050565b6000610ec082610e6f565b610eca8185610e7a565b9350610eda818560208601610e8b565b610ee381610c79565b840191505092915050565b610ef781610dd5565b82525050565b6000819050919050565b610f1081610efd565b82525050565b60006060820190508181036000830152610f308186610eb5565b9050610f3f6020830185610eee565b610f4c6040830184610f07565b949350505050565b600060208284031215610f6a57610f69610c65565b5b600082013567ffffffffffffffff811115610f8857610f87610c6a565b5b610f9484828501610d87565b91505092915050565b6000604082019050610fb26000830185610eee565b610fbf6020830184610f07565b9392505050565b60008060408385031215610fdd57610fdc610c65565b5b6000610feb85828601610dfe565b925050602083013567ffffffffffffffff81111561100c5761100b610c6a565b5b61101885828601610d87565b9150509250929050565b6000819050919050565b600061104761104261103d84610db5565b611022565b610db5565b9050919050565b60006110598261102c565b9050919050565b600061106b8261104e565b9050919050565b61107b81611060565b82525050565b60006020820190506110966000830184611072565b92915050565b60006020820190506110b16000830184610eee565b92915050565b60006110c282610db5565b9050919050565b6110d2816110b7565b82525050565b60008115159050919050565b6110ed816110d8565b82525050565b600060808201905061110860008301876110c9565b61111560208301866110e4565b81810360408301526111278185610eb5565b90506111366060830184610f07565b95945050505050565b600081905092915050565b600061115582610e6f565b61115f818561113f565b935061116f818560208601610e8b565b80840191505092915050565b6000611187828461114a565b915081905092915050565b7f596f7520617265206e6f7420617574686f72697a656420746f2063616c6c207460008201527f6869732066756e6374696f6e2e00000000000000000000000000000000000000602082015250565b60006111ee602d83610e7a565b91506111f982611192565b604082019050919050565b6000602082019050818103600083015261121d816111e1565b9050919050565b7f50726f6a65637420646f6573206e6f74206861766520656e6f7567682062616c60008201527f616e636520746f2070726f636565642e00000000000000000000000000000000602082015250565b6000611280603083610e7a565b915061128b82611224565b604082019050919050565b600060208201905081810360008301526112af81611273565b9050919050565b7f4e487b7100000000000000000000000000000000000000000000000000000000600052602260045260246000fd5b600060028204905060018216806112fd57607f821691505b6020821081036113105761130f6112b6565b5b50919050565b600081905092915050565b50565b6000611331600083611316565b915061133c82611321565b600082019050919050565b600061135282611324565b9150819050919050565b7f5769746864726177616c206661696c65642c2074727920616761696e206c617460008201527f65722e0000000000000000000000000000000000000000000000000000000000602082015250565b60006113b8602383610e7a565b91506113c38261135c565b604082019050919050565b600060208201905081810360008301526113e7816113ab565b9050919050565b7f4e487b7100000000000000000000000000000000000000000000000000000000600052601160045260246000fd5b600061142882610efd565b915061143383610efd565b925082820390508181111561144b5761144a6113ee565b5b92915050565b7f50726f6a6563742077617320616c726561647920726567697374657265640000600082015250565b6000611487601e83610e7a565b915061149282611451565b602082019050919050565b600060208201905081810360008301526114b68161147a565b9050919050565b60008190508160005260206000209050919050565b60006020601f8301049050919050565b600082821b905092915050565b60006008830261151f7fffffffffffffffffffffffffffffffffffffffffffffffffffffffffffffffff826114e2565b61152986836114e2565b95508019841693508086168417925050509392505050565b600061155c61155761155284610efd565b611022565b610efd565b9050919050565b6000819050919050565b61157683611541565b61158a61158282611563565b8484546114ef565b825550505050565b600090565b61159f611592565b6115aa81848461156d565b505050565b5b818110156115ce576115c3600082611597565b6001810190506115b0565b5050565b601f821115611613576115e4816114bd565b6115ed846114d2565b810160208510156115fc578190505b611610611608856114d2565b8301826115af565b50505b505050565b600082821c905092915050565b600061163660001984600802611618565b1980831691505092915050565b600061164f8383611625565b9150826002028217905092915050565b61166882610e6f565b67ffffffffffffffff81111561168157611680610c8a565b5b61168b82546112e5565b6116968282856115d2565b600060209050601f8311600181146116c957600084156116b7578287015190505b6116c18582611643565b865550611729565b601f1984166116d7866114bd565b60005b828110156116ff578489015182556001820191506020850194506020810190506116da565b8683101561171c5784890151611718601f891682611625565b8355505b6001600288020188555050505b505050505050565b7f50726f6a656374206973206e6f74207265676973746572656400000000000000600082015250565b6000611767601983610e7a565b915061177282611731565b602082019050919050565b600060208201905081810360008301526117968161175a565b9050919050565b7f436f6e747269627574696f6e206d75737420626520677265617465722074686160008201527f6e20300000000000000000000000000000000000000000000000000000000000602082015250565b60006117f9602383610e7a565b91506118048261179d565b604082019050919050565b60006020820190508181036000830152611828816117ec565b9050919050565b600061183a82610efd565b915061184583610efd565b925082820190508082111561185d5761185c6113ee565b5b92915050565b60006040820190506118786000830185610f07565b6118856020830184610eee565b9392505050565b6000819050919050565b60006118b16118ac6118a78461188c565b611022565b610efd565b9050919050565b6118c181611896565b82525050565b60006040820190506118dc6000830185610eee565b6118e960208301846118b8565b939250505056fea26469706673582212200b957bfa46ac861543071374167e0c9124408c337ea0b6c5971ef9dd5a2c539764736f6c63430008130033",
  "linkReferences": {},
  "deployedLinkReferences": {}
}