{
  "_format": "hh-sol-artifact-1",
  "contractName": "OSSFunding",
  "sourceName": "contracts/OSSFunding.sol",
  "abi": [
    {
      "inputs": [
        {
          "internalType": "address",
          "name": "freeMintTokenAddress",
          "type": "address"
        }
      ],
      "stateMutability": "nonpayable",
      "type": "constructor"
    },
    {
      "anonymous": false,
      "inputs": [
        {
          "indexed": false,
          "internalType": "uint256",
          "name": "amount",
          "type": "uint256"
        },
        {
          "indexed": false,
          "internalType": "address",
          "name": "contributor",
          "type": "address"
        },
        {
          "indexed": true,
          "internalType": "address",
          "name": "maintainer",
          "type": "address"
        }
      ],
      "name": "ContributionReceived",
      "type": "event"
    },
    {
      "anonymous": false,
      "inputs": [
        {
          "indexed": true,
          "internalType": "string",
          "name": "repo",
          "type": "string"
        },
        {
          "indexed": false,
          "internalType": "address",
          "name": "maintainer",
          "type": "address"
        }
      ],
      "name": "GithubRepoAdded",
      "type": "event"
    },
    {
      "stateMutability": "payable",
      "type": "fallback"
    },
    {
      "inputs": [
        {
          "internalType": "uint256",
          "name": "ethAmountFor1Dollar",
          "type": "uint256"
        }
      ],
      "name": "acceptTask",
      "outputs": [],
      "stateMutability": "payable",
      "type": "function"
    },
    {
      "inputs": [
        {
          "internalType": "string",
          "name": "repo",
          "type": "string"
        },
        {
          "internalType": "address",
          "name": "contributor",
          "type": "address"
        }
      ],
      "name": "contributeToProject",
      "outputs": [
        {
          "internalType": "address",
          "name": "",
          "type": "address"
        }
      ],
      "stateMutability": "payable",
      "type": "function"
    },
    {
      "inputs": [
        {
          "internalType": "address",
          "name": "",
          "type": "address"
        },
        {
          "internalType": "string",
          "name": "",
          "type": "string"
        }
      ],
      "name": "contribution",
      "outputs": [
        {
          "internalType": "address",
          "name": "contributor",
          "type": "address"
        },
        {
          "internalType": "uint256",
          "name": "total_contributions",
          "type": "uint256"
        }
      ],
      "stateMutability": "view",
      "type": "function"
    },
    {
      "inputs": [
        {
          "internalType": "string",
          "name": "title",
          "type": "string"
        },
        {
          "internalType": "uint256",
          "name": "amount",
          "type": "uint256"
        },
        {
          "internalType": "address",
          "name": "maintainer",
          "type": "address"
        }
      ],
      "name": "createTask",
      "outputs": [
        {
          "internalType": "bool",
          "name": "",
          "type": "bool"
        }
      ],
      "stateMutability": "nonpayable",
      "type": "function"
    },
    {
      "inputs": [],
      "name": "freeMintToken",
      "outputs": [
        {
          "internalType": "contract IFreeMintToken",
          "name": "",
          "type": "address"
        }
      ],
      "stateMutability": "view",
      "type": "function"
    },
    {
      "inputs": [],
      "name": "getAllTasks",
      "outputs": [
        {
          "components": [
            {
              "internalType": "string",
              "name": "title",
              "type": "string"
            },
            {
              "internalType": "uint256",
              "name": "amount",
              "type": "uint256"
            },
            {
              "internalType": "address",
              "name": "maintainer",
              "type": "address"
            }
          ],
          "internalType": "struct OSSFunding.Task[]",
          "name": "",
          "type": "tuple[]"
        }
      ],
      "stateMutability": "view",
      "type": "function"
    },
    {
      "inputs": [
        {
          "internalType": "string",
          "name": "repo",
          "type": "string"
        }
      ],
      "name": "getProjectMaintainer",
      "outputs": [
        {
          "internalType": "address",
          "name": "",
          "type": "address"
        },
        {
          "internalType": "uint256",
          "name": "",
          "type": "uint256"
        }
      ],
      "stateMutability": "view",
      "type": "function"
    },
    {
      "inputs": [
        {
          "internalType": "string",
          "name": "",
          "type": "string"
        }
      ],
      "name": "github_repo",
      "outputs": [
        {
          "internalType": "address payable",
          "name": "maintainer",
          "type": "address"
        },
        {
          "internalType": "bool",
          "name": "registered",
          "type": "bool"
        },
        {
          "internalType": "string",
          "name": "github_repo",
          "type": "string"
        },
        {
          "internalType": "uint256",
          "name": "stored_value",
          "type": "uint256"
        }
      ],
      "stateMutability": "view",
      "type": "function"
    },
    {
      "inputs": [
        {
          "internalType": "string",
          "name": "repo",
          "type": "string"
        },
        {
          "internalType": "address",
          "name": "user_address",
          "type": "address"
        }
      ],
      "name": "isProjectMaintainer",
      "outputs": [
        {
          "internalType": "bool",
          "name": "",
          "type": "bool"
        }
      ],
      "stateMutability": "view",
      "type": "function"
    },
    {
      "inputs": [
        {
          "internalType": "string",
          "name": "repo",
          "type": "string"
        },
        {
          "internalType": "address",
          "name": "maintainer",
          "type": "address"
        }
      ],
      "name": "liquidateProject",
      "outputs": [
        {
          "internalType": "string",
          "name": "",
          "type": "string"
        },
        {
          "internalType": "address",
          "name": "",
          "type": "address"
        },
        {
          "internalType": "uint256",
          "name": "",
          "type": "uint256"
        }
      ],
      "stateMutability": "payable",
      "type": "function"
    },
    {
      "inputs": [
        {
          "internalType": "string",
          "name": "repo",
          "type": "string"
        },
        {
          "internalType": "address",
          "name": "maintainer",
          "type": "address"
        }
      ],
      "name": "registerProject",
      "outputs": [],
      "stateMutability": "nonpayable",
      "type": "function"
    },
    {
      "stateMutability": "payable",
      "type": "receive"
    }
  ],
  "bytecode": "0x60806040523480156200001157600080fd5b506040516200226a3803806200226a833981810160405281019062000037919062000129565b336000806101000a81548173ffffffffffffffffffffffffffffffffffffffff021916908373ffffffffffffffffffffffffffffffffffffffff16021790555080600160006101000a81548173ffffffffffffffffffffffffffffffffffffffff021916908373ffffffffffffffffffffffffffffffffffffffff160217905550506200015b565b600080fd5b600073ffffffffffffffffffffffffffffffffffffffff82169050919050565b6000620000f182620000c4565b9050919050565b6200010381620000e4565b81146200010f57600080fd5b50565b6000815190506200012381620000f8565b92915050565b600060208284031215620001425762000141620000bf565b5b6000620001528482850162000112565b91505092915050565b6120ff806200016b6000396000f3fe6080604052600436106100a05760003560e01c80631d02f21b116100645780631d02f21b146101a157806336a09b7d146101df578063402aa35d14610208578063687d3ae714610246578063779900b4146102715780638f27b0201461029c576100a7565b806304270817146100a9578063065b340f146100e657806315ff4c6414610116578063193154f3146101535780631bf6912d14610185576100a7565b366100a757005b005b3480156100b557600080fd5b506100d060048036038101906100cb919061133b565b6102dc565b6040516100dd91906113c5565b60405180910390f35b61010060048036038101906100fb91906113e0565b6103ae565b60405161010d919061144b565b60405180910390f35b34801561012257600080fd5b5061013d600480360381019061013891906113e0565b610715565b60405161014a91906113c5565b60405180910390f35b61016d600480360381019061016891906113e0565b61079f565b60405161017c939291906114f4565b60405180910390f35b61019f600480360381019061019a9190611532565b610b0a565b005b3480156101ad57600080fd5b506101c860048036038101906101c3919061155f565b610cd0565b6040516101d69291906115a8565b60405180910390f35b3480156101eb57600080fd5b50610206600480360381019061020191906113e0565b610d40565b005b34801561021457600080fd5b5061022f600480360381019061022a91906115d1565b610e74565b60405161023d9291906115a8565b60405180910390f35b34801561025257600080fd5b5061025b610edb565b604051610268919061168c565b60405180910390f35b34801561027d57600080fd5b50610286610f01565b6040516102939190611821565b60405180910390f35b3480156102a857600080fd5b506102c360048036038101906102be919061155f565b611052565b6040516102d39493929190611864565b60405180910390f35b6000600460405180606001604052808681526020018581526020018473ffffffffffffffffffffffffffffffffffffffff168152509080600181540180825580915050600190039060005260206000209060030201600090919091909150600082015181600001908161034f9190611ab2565b506020820151816001015560408201518160020160006101000a81548173ffffffffffffffffffffffffffffffffffffffff021916908373ffffffffffffffffffffffffffffffffffffffff1602179055505050600190509392505050565b60006002836040516103c09190611bc0565b908152602001604051809103902060000160149054906101000a900460ff1661041e576040517f08c379a000000000000000000000000000000000000000000000000000000000815260040161041590611c23565b60405180910390fd5b60003411610461576040517f08c379a000000000000000000000000000000000000000000000000000000000815260040161045890611cb5565b60405180910390fd5b60006002846040516104739190611bc0565b908152602001604051809103902060000160009054906101000a900473ffffffffffffffffffffffffffffffffffffffff169050346002856040516104b89190611bc0565b908152602001604051809103902060020160008282546104d89190611d04565b925050819055506000600360008573ffffffffffffffffffffffffffffffffffffffff1673ffffffffffffffffffffffffffffffffffffffff1681526020019081526020016000208560405161052e9190611bc0565b9081526020016040518091039020600101549050348161054e9190611d04565b905060405180604001604052808573ffffffffffffffffffffffffffffffffffffffff16815260200182815250600360008673ffffffffffffffffffffffffffffffffffffffff1673ffffffffffffffffffffffffffffffffffffffff168152602001908152602001600020866040516105c89190611bc0565b908152602001604051809103902060008201518160000160006101000a81548173ffffffffffffffffffffffffffffffffffffffff021916908373ffffffffffffffffffffffffffffffffffffffff16021790555060208201518160010155905050600160009054906101000a900473ffffffffffffffffffffffffffffffffffffffff1673ffffffffffffffffffffffffffffffffffffffff166340c10f198560016040518363ffffffff1660e01b8152600401610688929190611d73565b600060405180830381600087803b1580156106a257600080fd5b505af11580156106b6573d6000803e3d6000fd5b505050508173ffffffffffffffffffffffffffffffffffffffff167fa2834fc0ba6768d12170d412a119635ae5ec7724767f4b12a92ee5b16fdd15ba3486604051610702929190611d9c565b60405180910390a2819250505092915050565b60008173ffffffffffffffffffffffffffffffffffffffff1660028460405161073e9190611bc0565b908152602001604051809103902060000160009054906101000a900473ffffffffffffffffffffffffffffffffffffffff1673ffffffffffffffffffffffffffffffffffffffff16036107945760019050610799565b600090505b92915050565b60606000808373ffffffffffffffffffffffffffffffffffffffff166002866040516107cb9190611bc0565b908152602001604051809103902060000160009054906101000a900473ffffffffffffffffffffffffffffffffffffffff1673ffffffffffffffffffffffffffffffffffffffff1614610853576040517f08c379a000000000000000000000000000000000000000000000000000000000815260040161084a90611e37565b60405180910390fd5b60006002866040516108659190611bc0565b908152602001604051809103902060020154116108b7576040517f08c379a00000000000000000000000000000000000000000000000000000000081526004016108ae90611ec9565b60405180910390fd5b60006002866040516108c99190611bc0565b908152602001604051809103902060010180546108e5906118df565b80601f0160208091040260200160405190810160405280929190818152602001828054610911906118df565b801561095e5780601f106109335761010080835404028352916020019161095e565b820191906000526020600020905b81548152906001019060200180831161094157829003601f168201915b5050505050905060006002876040516109779190611bc0565b908152602001604051809103902060000160009054906101000a900473ffffffffffffffffffffffffffffffffffffffff16905060006002886040516109bd9190611bc0565b908152602001604051809103902060020154905060006002896040516109e39190611bc0565b908152602001604051809103902060000160009054906101000a900473ffffffffffffffffffffffffffffffffffffffff1673ffffffffffffffffffffffffffffffffffffffff1682604051610a3890611f1a565b60006040518083038185875af1925050503d8060008114610a75576040519150601f19603f3d011682016040523d82523d6000602084013e610a7a565b606091505b5050905080610abe576040517f08c379a0000000000000000000000000000000000000000000000000000000008152600401610ab590611fa1565b60405180910390fd5b8160028a604051610acf9190611bc0565b90815260200160405180910390206002016000828254610aef9190611fc1565b92505081905550838383965096509650505050509250925092565b80341015610b4d576040517f08c379a0000000000000000000000000000000000000000000000000000000008152600401610b4490612067565b60405180910390fd5b6060816101f4610b5d9190612087565b3410610ba0576040518060400160405280600881526020017f506c6174696e756d0000000000000000000000000000000000000000000000008152509050610ccc565b816064610bad9190612087565b3410610bf0576040518060400160405280600481526020017f476f6c64000000000000000000000000000000000000000000000000000000008152509050610ccb565b816014610bfd9190612087565b3410610c40576040518060400160405280600681526020017f53696c76657200000000000000000000000000000000000000000000000000008152509050610cca565b816005610c4d9190612087565b3410610c90576040518060400160405280600681526020017f42726f6e7a6500000000000000000000000000000000000000000000000000008152509050610cc9565b6040518060400160405280600981526020017f537570706f72746572000000000000000000000000000000000000000000000081525090505b5b5b5b5050565b600080600283604051610ce39190611bc0565b908152602001604051809103902060000160009054906101000a900473ffffffffffffffffffffffffffffffffffffffff16600284604051610d259190611bc0565b90815260200160405180910390206002015491509150915091565b60405180608001604052808273ffffffffffffffffffffffffffffffffffffffff1681526020016001151581526020018381526020016000815250600283604051610d8b9190611bc0565b908152602001604051809103902060008201518160000160006101000a81548173ffffffffffffffffffffffffffffffffffffffff021916908373ffffffffffffffffffffffffffffffffffffffff16021790555060208201518160000160146101000a81548160ff0219169083151502179055506040820151816001019081610e159190611ab2565b506060820151816002015590505081604051610e319190611bc0565b60405180910390207f7cfd4c66c50cb6e3ea99ebcfabede034962bb06bebb5847b221fbc1b7ca0819282604051610e68919061144b565b60405180910390a25050565b600360205281600052604060002081805160208101820180518482526020830160208501208183528095505050505050600091509150508060000160009054906101000a900473ffffffffffffffffffffffffffffffffffffffff16908060010154905082565b600160009054906101000a900473ffffffffffffffffffffffffffffffffffffffff1681565b60606004805480602002602001604051908101604052809291908181526020016000905b828210156110495783829060005260206000209060030201604051806060016040529081600082018054610f58906118df565b80601f0160208091040260200160405190810160405280929190818152602001828054610f84906118df565b8015610fd15780601f10610fa657610100808354040283529160200191610fd1565b820191906000526020600020905b815481529060010190602001808311610fb457829003601f168201915b50505050508152602001600182015481526020016002820160009054906101000a900473ffffffffffffffffffffffffffffffffffffffff1673ffffffffffffffffffffffffffffffffffffffff1673ffffffffffffffffffffffffffffffffffffffff168152505081526020019060010190610f25565b50505050905090565b6002818051602081018201805184825260208301602085012081835280955050505050506000915090508060000160009054906101000a900473ffffffffffffffffffffffffffffffffffffffff16908060000160149054906101000a900460ff16908060010180546110c4906118df565b80601f01602080910402602001604051908101604052809291908181526020018280546110f0906118df565b801561113d5780601f106111125761010080835404028352916020019161113d565b820191906000526020600020905b81548152906001019060200180831161112057829003601f168201915b5050505050908060020154905084565b6000604051905090565b600080fd5b600080fd5b600080fd5b600080fd5b6000601f19601f8301169050919050565b7f4e487b7100000000000000000000000000000000000000000000000000000000600052604160045260246000fd5b6111b48261116b565b810181811067ffffffffffffffff821117156111d3576111d261117c565b5b80604052505050565b60006111e661114d565b90506111f282826111ab565b919050565b600067ffffffffffffffff8211156112125761121161117c565b5b61121b8261116b565b9050602081019050919050565b82818337600083830152505050565b600061124a611245846111f7565b6111dc565b90508281526020810184848401111561126657611265611166565b5b611271848285611228565b509392505050565b600082601f83011261128e5761128d611161565b5b813561129e848260208601611237565b91505092915050565b6000819050919050565b6112ba816112a7565b81146112c557600080fd5b50565b6000813590506112d7816112b1565b92915050565b600073ffffffffffffffffffffffffffffffffffffffff82169050919050565b6000611308826112dd565b9050919050565b611318816112fd565b811461132357600080fd5b50565b6000813590506113358161130f565b92915050565b60008060006060848603121561135457611353611157565b5b600084013567ffffffffffffffff8111156113725761137161115c565b5b61137e86828701611279565b935050602061138f868287016112c8565b92505060406113a086828701611326565b9150509250925092565b60008115159050919050565b6113bf816113aa565b82525050565b60006020820190506113da60008301846113b6565b92915050565b600080604083850312156113f7576113f6611157565b5b600083013567ffffffffffffffff8111156114155761141461115c565b5b61142185828601611279565b925050602061143285828601611326565b9150509250929050565b611445816112fd565b82525050565b6000602082019050611460600083018461143c565b92915050565b600081519050919050565b600082825260208201905092915050565b60005b838110156114a0578082015181840152602081019050611485565b60008484015250505050565b60006114b782611466565b6114c18185611471565b93506114d1818560208601611482565b6114da8161116b565b840191505092915050565b6114ee816112a7565b82525050565b6000606082019050818103600083015261150e81866114ac565b905061151d602083018561143c565b61152a60408301846114e5565b949350505050565b60006020828403121561154857611547611157565b5b6000611556848285016112c8565b91505092915050565b60006020828403121561157557611574611157565b5b600082013567ffffffffffffffff8111156115935761159261115c565b5b61159f84828501611279565b91505092915050565b60006040820190506115bd600083018561143c565b6115ca60208301846114e5565b9392505050565b600080604083850312156115e8576115e7611157565b5b60006115f685828601611326565b925050602083013567ffffffffffffffff8111156116175761161661115c565b5b61162385828601611279565b9150509250929050565b6000819050919050565b600061165261164d611648846112dd565b61162d565b6112dd565b9050919050565b600061166482611637565b9050919050565b600061167682611659565b9050919050565b6116868161166b565b82525050565b60006020820190506116a1600083018461167d565b92915050565b600081519050919050565b600082825260208201905092915050565b6000819050602082019050919050565b600082825260208201905092915050565b60006116ef82611466565b6116f981856116d3565b9350611709818560208601611482565b6117128161116b565b840191505092915050565b611726816112a7565b82525050565b611735816112fd565b82525050565b6000606083016000830151848203600086015261175882826116e4565b915050602083015161176d602086018261171d565b506040830151611780604086018261172c565b508091505092915050565b6000611797838361173b565b905092915050565b6000602082019050919050565b60006117b7826116a7565b6117c181856116b2565b9350836020820285016117d3856116c3565b8060005b8581101561180f57848403895281516117f0858261178b565b94506117fb8361179f565b925060208a019950506001810190506117d7565b50829750879550505050505092915050565b6000602082019050818103600083015261183b81846117ac565b905092915050565b600061184e826112dd565b9050919050565b61185e81611843565b82525050565b60006080820190506118796000830187611855565b61188660208301866113b6565b818103604083015261189881856114ac565b90506118a760608301846114e5565b95945050505050565b7f4e487b7100000000000000000000000000000000000000000000000000000000600052602260045260246000fd5b600060028204905060018216806118f757607f821691505b60208210810361190a576119096118b0565b5b50919050565b60008190508160005260206000209050919050565b60006020601f8301049050919050565b600082821b905092915050565b6000600883026119727fffffffffffffffffffffffffffffffffffffffffffffffffffffffffffffffff82611935565b61197c8683611935565b95508019841693508086168417925050509392505050565b60006119af6119aa6119a5846112a7565b61162d565b6112a7565b9050919050565b6000819050919050565b6119c983611994565b6119dd6119d5826119b6565b848454611942565b825550505050565b600090565b6119f26119e5565b6119fd8184846119c0565b505050565b5b81811015611a2157611a166000826119ea565b600181019050611a03565b5050565b601f821115611a6657611a3781611910565b611a4084611925565b81016020851015611a4f578190505b611a63611a5b85611925565b830182611a02565b50505b505050565b600082821c905092915050565b6000611a8960001984600802611a6b565b1980831691505092915050565b6000611aa28383611a78565b9150826002028217905092915050565b611abb82611466565b67ffffffffffffffff811115611ad457611ad361117c565b5b611ade82546118df565b611ae9828285611a25565b600060209050601f831160018114611b1c5760008415611b0a578287015190505b611b148582611a96565b865550611b7c565b601f198416611b2a86611910565b60005b82811015611b5257848901518255600182019150602085019450602081019050611b2d565b86831015611b6f5784890151611b6b601f891682611a78565b8355505b6001600288020188555050505b505050505050565b600081905092915050565b6000611b9a82611466565b611ba48185611b84565b9350611bb4818560208601611482565b80840191505092915050565b6000611bcc8284611b8f565b915081905092915050565b7f50726f6a656374206973206e6f74207265676973746572656400000000000000600082015250565b6000611c0d601983611471565b9150611c1882611bd7565b602082019050919050565b60006020820190508181036000830152611c3c81611c00565b9050919050565b7f436f6e747269627574696f6e206d75737420626520677265617465722074686160008201527f6e20300000000000000000000000000000000000000000000000000000000000602082015250565b6000611c9f602383611471565b9150611caa82611c43565b604082019050919050565b60006020820190508181036000830152611cce81611c92565b9050919050565b7f4e487b7100000000000000000000000000000000000000000000000000000000600052601160045260246000fd5b6000611d0f826112a7565b9150611d1a836112a7565b9250828201905080821115611d3257611d31611cd5565b5b92915050565b6000819050919050565b6000611d5d611d58611d5384611d38565b61162d565b6112a7565b9050919050565b611d6d81611d42565b82525050565b6000604082019050611d88600083018561143c565b611d956020830184611d64565b9392505050565b6000604082019050611db160008301856114e5565b611dbe602083018461143c565b9392505050565b7f596f7520617265206e6f7420617574686f72697a656420746f2063616c6c207460008201527f6869732066756e6374696f6e2e00000000000000000000000000000000000000602082015250565b6000611e21602d83611471565b9150611e2c82611dc5565b604082019050919050565b60006020820190508181036000830152611e5081611e14565b9050919050565b7f50726f6a65637420646f6573206e6f74206861766520656e6f7567682062616c60008201527f616e636520746f2070726f636565642e00000000000000000000000000000000602082015250565b6000611eb3603083611471565b9150611ebe82611e57565b604082019050919050565b60006020820190508181036000830152611ee281611ea6565b9050919050565b600081905092915050565b50565b6000611f04600083611ee9565b9150611f0f82611ef4565b600082019050919050565b6000611f2582611ef7565b9150819050919050565b7f5769746864726177616c206661696c65642c2074727920616761696e206c617460008201527f65722e0000000000000000000000000000000000000000000000000000000000602082015250565b6000611f8b602383611471565b9150611f9682611f2f565b604082019050919050565b60006020820190508181036000830152611fba81611f7e565b9050919050565b6000611fcc826112a7565b9150611fd7836112a7565b9250828203905081811115611fef57611fee611cd5565b5b92915050565b7f4d696e696d756d20646f6e6174696f6e206973203120646f6c6c61722065717560008201527f6976616c656e7420696e20455448000000000000000000000000000000000000602082015250565b6000612051602e83611471565b915061205c82611ff5565b604082019050919050565b6000602082019050818103600083015261208081612044565b9050919050565b6000612092826112a7565b915061209d836112a7565b92508282026120ab816112a7565b915082820484148315176120c2576120c1611cd5565b5b509291505056fea26469706673582212202ea104ffd0a824ae8413f19ea6f1fc6cf7d6957a8a229feb3b43b740947352c964736f6c63430008130033",
  "linkReferences": {},
  "deployedLinkReferences": {}
}