{
  "_format": "hh-sol-artifact-1",
  "contractName": "OSSFunding",
  "sourceName": "contracts/OSSFunding.sol",
  "abi": [
    {
      "inputs": [
        {
          "internalType": "address",
          "name": "freeMintTokenAddress",
          "type": "address"
        }
      ],
      "stateMutability": "nonpayable",
      "type": "constructor"
    },
    {
      "anonymous": false,
      "inputs": [
        {
          "indexed": false,
          "internalType": "uint256",
          "name": "amount",
          "type": "uint256"
        },
        {
          "indexed": false,
          "internalType": "address",
          "name": "contributor",
          "type": "address"
        },
        {
          "indexed": true,
          "internalType": "address",
          "name": "maintainer",
          "type": "address"
        }
      ],
      "name": "ContributionReceived",
      "type": "event"
    },
    {
      "anonymous": false,
      "inputs": [
        {
          "indexed": true,
          "internalType": "string",
          "name": "repo",
          "type": "string"
        },
        {
          "indexed": false,
          "internalType": "address",
          "name": "maintainer",
          "type": "address"
        }
      ],
      "name": "GithubRepoAdded",
      "type": "event"
    },
    {
      "stateMutability": "payable",
      "type": "fallback"
    },
    {
      "inputs": [
        {
          "internalType": "uint256",
          "name": "ethAmountFor1Dollar",
          "type": "uint256"
        }
      ],
      "name": "acceptTask",
      "outputs": [],
      "stateMutability": "payable",
      "type": "function"
    },
    {
      "inputs": [
        {
          "internalType": "string",
          "name": "repo",
          "type": "string"
        },
        {
          "internalType": "address",
          "name": "contributor",
          "type": "address"
        }
      ],
      "name": "contributeToProject",
      "outputs": [
        {
          "internalType": "address",
          "name": "",
          "type": "address"
        }
      ],
      "stateMutability": "payable",
      "type": "function"
    },
    {
      "inputs": [
        {
          "internalType": "address",
          "name": "",
          "type": "address"
        },
        {
          "internalType": "string",
          "name": "",
          "type": "string"
        }
      ],
      "name": "contribution",
      "outputs": [
        {
          "internalType": "address",
          "name": "contributor",
          "type": "address"
        },
        {
          "internalType": "uint256",
          "name": "total_contributions",
          "type": "uint256"
        }
      ],
      "stateMutability": "view",
      "type": "function"
    },
    {
      "inputs": [
        {
          "internalType": "string",
          "name": "title",
          "type": "string"
        },
        {
          "internalType": "uint256",
          "name": "amount",
          "type": "uint256"
        },
        {
          "internalType": "address",
          "name": "maintainer",
          "type": "address"
        }
      ],
      "name": "createTask",
      "outputs": [
        {
          "internalType": "bool",
          "name": "",
          "type": "bool"
        }
      ],
      "stateMutability": "nonpayable",
      "type": "function"
    },
    {
      "inputs": [],
      "name": "freeMintToken",
      "outputs": [
        {
          "internalType": "contract IFreeMintToken",
          "name": "",
          "type": "address"
        }
      ],
      "stateMutability": "view",
      "type": "function"
    },
    {
      "inputs": [],
      "name": "getAllTasks",
      "outputs": [
        {
          "components": [
            {
              "internalType": "string",
              "name": "title",
              "type": "string"
            },
            {
              "internalType": "uint256",
              "name": "amount",
              "type": "uint256"
            },
            {
              "internalType": "address",
              "name": "maintainer",
              "type": "address"
            }
          ],
          "internalType": "struct OSSFunding.Task[]",
          "name": "",
          "type": "tuple[]"
        }
      ],
      "stateMutability": "view",
      "type": "function"
    },
    {
      "inputs": [
        {
          "internalType": "string",
          "name": "repo",
          "type": "string"
        }
      ],
      "name": "getProjectMaintainer",
      "outputs": [
        {
          "internalType": "address",
          "name": "",
          "type": "address"
        },
        {
          "internalType": "uint256",
          "name": "",
          "type": "uint256"
        }
      ],
      "stateMutability": "view",
      "type": "function"
    },
    {
      "inputs": [
        {
          "internalType": "string",
          "name": "",
          "type": "string"
        }
      ],
      "name": "github_repo",
      "outputs": [
        {
          "internalType": "address payable",
          "name": "maintainer",
          "type": "address"
        },
        {
          "internalType": "bool",
          "name": "registered",
          "type": "bool"
        },
        {
          "internalType": "string",
          "name": "github_repo",
          "type": "string"
        },
        {
          "internalType": "uint256",
          "name": "stored_value",
          "type": "uint256"
        }
      ],
      "stateMutability": "view",
      "type": "function"
    },
    {
      "inputs": [
        {
          "internalType": "string",
          "name": "repo",
          "type": "string"
        },
        {
          "internalType": "address",
          "name": "maintainer",
          "type": "address"
        }
      ],
      "name": "liquidateProject",
      "outputs": [
        {
          "internalType": "string",
          "name": "",
          "type": "string"
        },
        {
          "internalType": "address",
          "name": "",
          "type": "address"
        },
        {
          "internalType": "uint256",
          "name": "",
          "type": "uint256"
        }
      ],
      "stateMutability": "payable",
      "type": "function"
    },
    {
      "inputs": [
        {
          "internalType": "string",
          "name": "repo",
          "type": "string"
        },
        {
          "internalType": "address",
          "name": "maintainer",
          "type": "address"
        }
      ],
      "name": "registerProject",
      "outputs": [],
      "stateMutability": "nonpayable",
      "type": "function"
    },
    {
      "stateMutability": "payable",
      "type": "receive"
    }
  ],
  "bytecode": "0x60806040523480156200001157600080fd5b506040516200227338038062002273833981810160405281019062000037919062000129565b336000806101000a81548173ffffffffffffffffffffffffffffffffffffffff021916908373ffffffffffffffffffffffffffffffffffffffff16021790555080600160006101000a81548173ffffffffffffffffffffffffffffffffffffffff021916908373ffffffffffffffffffffffffffffffffffffffff160217905550506200015b565b600080fd5b600073ffffffffffffffffffffffffffffffffffffffff82169050919050565b6000620000f182620000c4565b9050919050565b6200010381620000e4565b81146200010f57600080fd5b50565b6000815190506200012381620000f8565b92915050565b600060208284031215620001425762000141620000bf565b5b6000620001528482850162000112565b91505092915050565b612108806200016b6000396000f3fe6080604052600436106100955760003560e01c806336a09b7d1161005957806336a09b7d14610197578063402aa35d146101c0578063687d3ae7146101fe578063779900b4146102295780638f27b020146102545761009c565b8063042708171461009e578063065b340f146100db578063193154f31461010b5780631bf6912d1461013d5780631d02f21b146101595761009c565b3661009c57005b005b3480156100aa57600080fd5b506100c560048036038101906100c091906112d8565b610294565b6040516100d29190611362565b60405180910390f35b6100f560048036038101906100f0919061137d565b610366565b60405161010291906113e8565b60405180910390f35b6101256004803603810190610120919061137d565b6106cd565b60405161013493929190611491565b60405180910390f35b610157600480360381019061015291906114cf565b610a38565b005b34801561016557600080fd5b50610180600480360381019061017b91906114fc565b610bfe565b60405161018e929190611545565b60405180910390f35b3480156101a357600080fd5b506101be60048036038101906101b9919061137d565b610c6e565b005b3480156101cc57600080fd5b506101e760048036038101906101e2919061156e565b610e11565b6040516101f5929190611545565b60405180910390f35b34801561020a57600080fd5b50610213610e78565b6040516102209190611629565b60405180910390f35b34801561023557600080fd5b5061023e610e9e565b60405161024b91906117be565b60405180910390f35b34801561026057600080fd5b5061027b600480360381019061027691906114fc565b610fef565b60405161028b9493929190611801565b60405180910390f35b6000600460405180606001604052808681526020018581526020018473ffffffffffffffffffffffffffffffffffffffff16815250908060018154018082558091505060019003906000526020600020906003020160009091909190915060008201518160000190816103079190611a4f565b506020820151816001015560408201518160020160006101000a81548173ffffffffffffffffffffffffffffffffffffffff021916908373ffffffffffffffffffffffffffffffffffffffff1602179055505050600190509392505050565b60006002836040516103789190611b5d565b908152602001604051809103902060000160149054906101000a900460ff166103d6576040517f08c379a00000000000000000000000000000000000000000000000000000000081526004016103cd90611bc0565b60405180910390fd5b60003411610419576040517f08c379a000000000000000000000000000000000000000000000000000000000815260040161041090611c52565b60405180910390fd5b600060028460405161042b9190611b5d565b908152602001604051809103902060000160009054906101000a900473ffffffffffffffffffffffffffffffffffffffff169050346002856040516104709190611b5d565b908152602001604051809103902060020160008282546104909190611ca1565b925050819055506000600360008573ffffffffffffffffffffffffffffffffffffffff1673ffffffffffffffffffffffffffffffffffffffff168152602001908152602001600020856040516104e69190611b5d565b908152602001604051809103902060010154905034816105069190611ca1565b905060405180604001604052808573ffffffffffffffffffffffffffffffffffffffff16815260200182815250600360008673ffffffffffffffffffffffffffffffffffffffff1673ffffffffffffffffffffffffffffffffffffffff168152602001908152602001600020866040516105809190611b5d565b908152602001604051809103902060008201518160000160006101000a81548173ffffffffffffffffffffffffffffffffffffffff021916908373ffffffffffffffffffffffffffffffffffffffff16021790555060208201518160010155905050600160009054906101000a900473ffffffffffffffffffffffffffffffffffffffff1673ffffffffffffffffffffffffffffffffffffffff166340c10f198560016040518363ffffffff1660e01b8152600401610640929190611d10565b600060405180830381600087803b15801561065a57600080fd5b505af115801561066e573d6000803e3d6000fd5b505050508173ffffffffffffffffffffffffffffffffffffffff167fa2834fc0ba6768d12170d412a119635ae5ec7724767f4b12a92ee5b16fdd15ba34866040516106ba929190611d39565b60405180910390a2819250505092915050565b60606000808373ffffffffffffffffffffffffffffffffffffffff166002866040516106f99190611b5d565b908152602001604051809103902060000160009054906101000a900473ffffffffffffffffffffffffffffffffffffffff1673ffffffffffffffffffffffffffffffffffffffff1614610781576040517f08c379a000000000000000000000000000000000000000000000000000000000815260040161077890611dd4565b60405180910390fd5b60006002866040516107939190611b5d565b908152602001604051809103902060020154116107e5576040517f08c379a00000000000000000000000000000000000000000000000000000000081526004016107dc90611e66565b60405180910390fd5b60006002866040516107f79190611b5d565b908152602001604051809103902060010180546108139061187c565b80601f016020809104026020016040519081016040528092919081815260200182805461083f9061187c565b801561088c5780601f106108615761010080835404028352916020019161088c565b820191906000526020600020905b81548152906001019060200180831161086f57829003601f168201915b5050505050905060006002876040516108a59190611b5d565b908152602001604051809103902060000160009054906101000a900473ffffffffffffffffffffffffffffffffffffffff16905060006002886040516108eb9190611b5d565b908152602001604051809103902060020154905060006002896040516109119190611b5d565b908152602001604051809103902060000160009054906101000a900473ffffffffffffffffffffffffffffffffffffffff1673ffffffffffffffffffffffffffffffffffffffff168260405161096690611eb7565b60006040518083038185875af1925050503d80600081146109a3576040519150601f19603f3d011682016040523d82523d6000602084013e6109a8565b606091505b50509050806109ec576040517f08c379a00000000000000000000000000000000000000000000000000000000081526004016109e390611f3e565b60405180910390fd5b8160028a6040516109fd9190611b5d565b90815260200160405180910390206002016000828254610a1d9190611f5e565b92505081905550838383965096509650505050509250925092565b80341015610a7b576040517f08c379a0000000000000000000000000000000000000000000000000000000008152600401610a7290612004565b60405180910390fd5b6060816101f4610a8b9190612024565b3410610ace576040518060400160405280600881526020017f506c6174696e756d0000000000000000000000000000000000000000000000008152509050610bfa565b816064610adb9190612024565b3410610b1e576040518060400160405280600481526020017f476f6c64000000000000000000000000000000000000000000000000000000008152509050610bf9565b816014610b2b9190612024565b3410610b6e576040518060400160405280600681526020017f53696c76657200000000000000000000000000000000000000000000000000008152509050610bf8565b816005610b7b9190612024565b3410610bbe576040518060400160405280600681526020017f42726f6e7a6500000000000000000000000000000000000000000000000000008152509050610bf7565b6040518060400160405280600981526020017f537570706f72746572000000000000000000000000000000000000000000000081525090505b5b5b5b5050565b600080600283604051610c119190611b5d565b908152602001604051809103902060000160009054906101000a900473ffffffffffffffffffffffffffffffffffffffff16600284604051610c539190611b5d565b90815260200160405180910390206002015491509150915091565b600282604051610c7e9190611b5d565b908152602001604051809103902060000160149054906101000a900460ff1615610cdd576040517f08c379a0000000000000000000000000000000000000000000000000000000008152600401610cd4906120b2565b60405180910390fd5b60405180608001604052808273ffffffffffffffffffffffffffffffffffffffff1681526020016001151581526020018381526020016000815250600283604051610d289190611b5d565b908152602001604051809103902060008201518160000160006101000a81548173ffffffffffffffffffffffffffffffffffffffff021916908373ffffffffffffffffffffffffffffffffffffffff16021790555060208201518160000160146101000a81548160ff0219169083151502179055506040820151816001019081610db29190611a4f565b506060820151816002015590505081604051610dce9190611b5d565b60405180910390207f7cfd4c66c50cb6e3ea99ebcfabede034962bb06bebb5847b221fbc1b7ca0819282604051610e0591906113e8565b60405180910390a25050565b600360205281600052604060002081805160208101820180518482526020830160208501208183528095505050505050600091509150508060000160009054906101000a900473ffffffffffffffffffffffffffffffffffffffff16908060010154905082565b600160009054906101000a900473ffffffffffffffffffffffffffffffffffffffff1681565b60606004805480602002602001604051908101604052809291908181526020016000905b82821015610fe65783829060005260206000209060030201604051806060016040529081600082018054610ef59061187c565b80601f0160208091040260200160405190810160405280929190818152602001828054610f219061187c565b8015610f6e5780601f10610f4357610100808354040283529160200191610f6e565b820191906000526020600020905b815481529060010190602001808311610f5157829003601f168201915b50505050508152602001600182015481526020016002820160009054906101000a900473ffffffffffffffffffffffffffffffffffffffff1673ffffffffffffffffffffffffffffffffffffffff1673ffffffffffffffffffffffffffffffffffffffff168152505081526020019060010190610ec2565b50505050905090565b6002818051602081018201805184825260208301602085012081835280955050505050506000915090508060000160009054906101000a900473ffffffffffffffffffffffffffffffffffffffff16908060000160149054906101000a900460ff16908060010180546110619061187c565b80601f016020809104026020016040519081016040528092919081815260200182805461108d9061187c565b80156110da5780601f106110af576101008083540402835291602001916110da565b820191906000526020600020905b8154815290600101906020018083116110bd57829003601f168201915b5050505050908060020154905084565b6000604051905090565b600080fd5b600080fd5b600080fd5b600080fd5b6000601f19601f8301169050919050565b7f4e487b7100000000000000000000000000000000000000000000000000000000600052604160045260246000fd5b61115182611108565b810181811067ffffffffffffffff821117156111705761116f611119565b5b80604052505050565b60006111836110ea565b905061118f8282611148565b919050565b600067ffffffffffffffff8211156111af576111ae611119565b5b6111b882611108565b9050602081019050919050565b82818337600083830152505050565b60006111e76111e284611194565b611179565b90508281526020810184848401111561120357611202611103565b5b61120e8482856111c5565b509392505050565b600082601f83011261122b5761122a6110fe565b5b813561123b8482602086016111d4565b91505092915050565b6000819050919050565b61125781611244565b811461126257600080fd5b50565b6000813590506112748161124e565b92915050565b600073ffffffffffffffffffffffffffffffffffffffff82169050919050565b60006112a58261127a565b9050919050565b6112b58161129a565b81146112c057600080fd5b50565b6000813590506112d2816112ac565b92915050565b6000806000606084860312156112f1576112f06110f4565b5b600084013567ffffffffffffffff81111561130f5761130e6110f9565b5b61131b86828701611216565b935050602061132c86828701611265565b925050604061133d868287016112c3565b9150509250925092565b60008115159050919050565b61135c81611347565b82525050565b60006020820190506113776000830184611353565b92915050565b60008060408385031215611394576113936110f4565b5b600083013567ffffffffffffffff8111156113b2576113b16110f9565b5b6113be85828601611216565b92505060206113cf858286016112c3565b9150509250929050565b6113e28161129a565b82525050565b60006020820190506113fd60008301846113d9565b92915050565b600081519050919050565b600082825260208201905092915050565b60005b8381101561143d578082015181840152602081019050611422565b60008484015250505050565b600061145482611403565b61145e818561140e565b935061146e81856020860161141f565b61147781611108565b840191505092915050565b61148b81611244565b82525050565b600060608201905081810360008301526114ab8186611449565b90506114ba60208301856113d9565b6114c76040830184611482565b949350505050565b6000602082840312156114e5576114e46110f4565b5b60006114f384828501611265565b91505092915050565b600060208284031215611512576115116110f4565b5b600082013567ffffffffffffffff8111156115305761152f6110f9565b5b61153c84828501611216565b91505092915050565b600060408201905061155a60008301856113d9565b6115676020830184611482565b9392505050565b60008060408385031215611585576115846110f4565b5b6000611593858286016112c3565b925050602083013567ffffffffffffffff8111156115b4576115b36110f9565b5b6115c085828601611216565b9150509250929050565b6000819050919050565b60006115ef6115ea6115e58461127a565b6115ca565b61127a565b9050919050565b6000611601826115d4565b9050919050565b6000611613826115f6565b9050919050565b61162381611608565b82525050565b600060208201905061163e600083018461161a565b92915050565b600081519050919050565b600082825260208201905092915050565b6000819050602082019050919050565b600082825260208201905092915050565b600061168c82611403565b6116968185611670565b93506116a681856020860161141f565b6116af81611108565b840191505092915050565b6116c381611244565b82525050565b6116d28161129a565b82525050565b600060608301600083015184820360008601526116f58282611681565b915050602083015161170a60208601826116ba565b50604083015161171d60408601826116c9565b508091505092915050565b600061173483836116d8565b905092915050565b6000602082019050919050565b600061175482611644565b61175e818561164f565b93508360208202850161177085611660565b8060005b858110156117ac578484038952815161178d8582611728565b94506117988361173c565b925060208a01995050600181019050611774565b50829750879550505050505092915050565b600060208201905081810360008301526117d88184611749565b905092915050565b60006117eb8261127a565b9050919050565b6117fb816117e0565b82525050565b600060808201905061181660008301876117f2565b6118236020830186611353565b81810360408301526118358185611449565b90506118446060830184611482565b95945050505050565b7f4e487b7100000000000000000000000000000000000000000000000000000000600052602260045260246000fd5b6000600282049050600182168061189457607f821691505b6020821081036118a7576118a661184d565b5b50919050565b60008190508160005260206000209050919050565b60006020601f8301049050919050565b600082821b905092915050565b60006008830261190f7fffffffffffffffffffffffffffffffffffffffffffffffffffffffffffffffff826118d2565b61191986836118d2565b95508019841693508086168417925050509392505050565b600061194c61194761194284611244565b6115ca565b611244565b9050919050565b6000819050919050565b61196683611931565b61197a61197282611953565b8484546118df565b825550505050565b600090565b61198f611982565b61199a81848461195d565b505050565b5b818110156119be576119b3600082611987565b6001810190506119a0565b5050565b601f821115611a03576119d4816118ad565b6119dd846118c2565b810160208510156119ec578190505b611a006119f8856118c2565b83018261199f565b50505b505050565b600082821c905092915050565b6000611a2660001984600802611a08565b1980831691505092915050565b6000611a3f8383611a15565b9150826002028217905092915050565b611a5882611403565b67ffffffffffffffff811115611a7157611a70611119565b5b611a7b825461187c565b611a868282856119c2565b600060209050601f831160018114611ab95760008415611aa7578287015190505b611ab18582611a33565b865550611b19565b601f198416611ac7866118ad565b60005b82811015611aef57848901518255600182019150602085019450602081019050611aca565b86831015611b0c5784890151611b08601f891682611a15565b8355505b6001600288020188555050505b505050505050565b600081905092915050565b6000611b3782611403565b611b418185611b21565b9350611b5181856020860161141f565b80840191505092915050565b6000611b698284611b2c565b915081905092915050565b7f50726f6a656374206973206e6f74207265676973746572656400000000000000600082015250565b6000611baa60198361140e565b9150611bb582611b74565b602082019050919050565b60006020820190508181036000830152611bd981611b9d565b9050919050565b7f436f6e747269627574696f6e206d75737420626520677265617465722074686160008201527f6e20300000000000000000000000000000000000000000000000000000000000602082015250565b6000611c3c60238361140e565b9150611c4782611be0565b604082019050919050565b60006020820190508181036000830152611c6b81611c2f565b9050919050565b7f4e487b7100000000000000000000000000000000000000000000000000000000600052601160045260246000fd5b6000611cac82611244565b9150611cb783611244565b9250828201905080821115611ccf57611cce611c72565b5b92915050565b6000819050919050565b6000611cfa611cf5611cf084611cd5565b6115ca565b611244565b9050919050565b611d0a81611cdf565b82525050565b6000604082019050611d2560008301856113d9565b611d326020830184611d01565b9392505050565b6000604082019050611d4e6000830185611482565b611d5b60208301846113d9565b9392505050565b7f596f7520617265206e6f7420617574686f72697a656420746f2063616c6c207460008201527f6869732066756e6374696f6e2e00000000000000000000000000000000000000602082015250565b6000611dbe602d8361140e565b9150611dc982611d62565b604082019050919050565b60006020820190508181036000830152611ded81611db1565b9050919050565b7f50726f6a65637420646f6573206e6f74206861766520656e6f7567682062616c60008201527f616e636520746f2070726f636565642e00000000000000000000000000000000602082015250565b6000611e5060308361140e565b9150611e5b82611df4565b604082019050919050565b60006020820190508181036000830152611e7f81611e43565b9050919050565b600081905092915050565b50565b6000611ea1600083611e86565b9150611eac82611e91565b600082019050919050565b6000611ec282611e94565b9150819050919050565b7f5769746864726177616c206661696c65642c2074727920616761696e206c617460008201527f65722e0000000000000000000000000000000000000000000000000000000000602082015250565b6000611f2860238361140e565b9150611f3382611ecc565b604082019050919050565b60006020820190508181036000830152611f5781611f1b565b9050919050565b6000611f6982611244565b9150611f7483611244565b9250828203905081811115611f8c57611f8b611c72565b5b92915050565b7f4d696e696d756d20646f6e6174696f6e206973203120646f6c6c61722065717560008201527f6976616c656e7420696e20455448000000000000000000000000000000000000602082015250565b6000611fee602e8361140e565b9150611ff982611f92565b604082019050919050565b6000602082019050818103600083015261201d81611fe1565b9050919050565b600061202f82611244565b915061203a83611244565b925082820261204881611244565b9150828204841483151761205f5761205e611c72565b5b5092915050565b7f50726f6a6563742077617320616c726561647920726567697374657265640000600082015250565b600061209c601e8361140e565b91506120a782612066565b602082019050919050565b600060208201905081810360008301526120cb8161208f565b905091905056fea264697066735822122026a284aa7550e64d452025f99e6d9f0814433bbc261693ded15e5e6d7dfc1adc64736f6c63430008130033",
  "linkReferences": {},
  "deployedLinkReferences": {}
}