{
  "_format": "hh-sol-artifact-1",
  "contractName": "FreeMintToken",
  "sourceName": "contracts/FreeMintToken.sol",
  "abi": [
    {
      "inputs": [],
      "stateMutability": "nonpayable",
      "type": "constructor"
    },
    {
      "inputs": [],
      "name": "ApprovalCallerNotOwnerNorApproved",
      "type": "error"
    },
    {
      "inputs": [],
      "name": "ApprovalQueryForNonexistentToken",
      "type": "error"
    },
    {
      "inputs": [],
      "name": "BalanceQueryForZeroAddress",
      "type": "error"
    },
    {
      "inputs": [],
      "name": "MintERC2309QuantityExceedsLimit",
      "type": "error"
    },
    {
      "inputs": [],
      "name": "MintToZeroAddress",
      "type": "error"
    },
    {
      "inputs": [],
      "name": "MintZeroQuantity",
      "type": "error"
    },
    {
      "inputs": [],
      "name": "NotCompatibleWithSpotMints",
      "type": "error"
    },
    {
      "inputs": [],
      "name": "OwnerQueryForNonexistentToken",
      "type": "error"
    },
    {
      "inputs": [],
      "name": "OwnershipNotInitializedForExtraData",
      "type": "error"
    },
    {
      "inputs": [],
      "name": "SequentialMintExceedsLimit",
      "type": "error"
    },
    {
      "inputs": [],
      "name": "SequentialUpToTooSmall",
      "type": "error"
    },
    {
      "inputs": [],
      "name": "SpotMintTokenIdTooSmall",
      "type": "error"
    },
    {
      "inputs": [],
      "name": "TokenAlreadyExists",
      "type": "error"
    },
    {
      "inputs": [],
      "name": "TransferCallerNotOwnerNorApproved",
      "type": "error"
    },
    {
      "inputs": [],
      "name": "TransferFromIncorrectOwner",
      "type": "error"
    },
    {
      "inputs": [],
      "name": "TransferToNonERC721ReceiverImplementer",
      "type": "error"
    },
    {
      "inputs": [],
      "name": "TransferToZeroAddress",
      "type": "error"
    },
    {
      "inputs": [],
      "name": "URIQueryForNonexistentToken",
      "type": "error"
    },
    {
      "anonymous": false,
      "inputs": [
        {
          "indexed": true,
          "internalType": "address",
          "name": "owner",
          "type": "address"
        },
        {
          "indexed": true,
          "internalType": "address",
          "name": "approved",
          "type": "address"
        },
        {
          "indexed": true,
          "internalType": "uint256",
          "name": "tokenId",
          "type": "uint256"
        }
      ],
      "name": "Approval",
      "type": "event"
    },
    {
      "anonymous": false,
      "inputs": [
        {
          "indexed": true,
          "internalType": "address",
          "name": "owner",
          "type": "address"
        },
        {
          "indexed": true,
          "internalType": "address",
          "name": "operator",
          "type": "address"
        },
        {
          "indexed": false,
          "internalType": "bool",
          "name": "approved",
          "type": "bool"
        }
      ],
      "name": "ApprovalForAll",
      "type": "event"
    },
    {
      "anonymous": false,
      "inputs": [
        {
          "indexed": true,
          "internalType": "uint256",
          "name": "fromTokenId",
          "type": "uint256"
        },
        {
          "indexed": false,
          "internalType": "uint256",
          "name": "toTokenId",
          "type": "uint256"
        },
        {
          "indexed": true,
          "internalType": "address",
          "name": "from",
          "type": "address"
        },
        {
          "indexed": true,
          "internalType": "address",
          "name": "to",
          "type": "address"
        }
      ],
      "name": "ConsecutiveTransfer",
      "type": "event"
    },
    {
      "anonymous": false,
      "inputs": [
        {
          "indexed": true,
          "internalType": "address",
          "name": "from",
          "type": "address"
        },
        {
          "indexed": true,
          "internalType": "address",
          "name": "to",
          "type": "address"
        },
        {
          "indexed": true,
          "internalType": "uint256",
          "name": "tokenId",
          "type": "uint256"
        }
      ],
      "name": "Transfer",
      "type": "event"
    },
    {
      "inputs": [],
      "name": "MAX_SUPPLY",
      "outputs": [
        {
          "internalType": "uint256",
          "name": "",
          "type": "uint256"
        }
      ],
      "stateMutability": "view",
      "type": "function"
    },
    {
      "inputs": [],
      "name": "USER_LIMIT",
      "outputs": [
        {
          "internalType": "uint256",
          "name": "",
          "type": "uint256"
        }
      ],
      "stateMutability": "view",
      "type": "function"
    },
    {
      "inputs": [
        {
          "internalType": "address",
          "name": "to",
          "type": "address"
        },
        {
          "internalType": "uint256",
          "name": "tokenId",
          "type": "uint256"
        }
      ],
      "name": "approve",
      "outputs": [],
      "stateMutability": "payable",
      "type": "function"
    },
    {
      "inputs": [
        {
          "internalType": "address",
          "name": "owner",
          "type": "address"
        }
      ],
      "name": "balanceOf",
      "outputs": [
        {
          "internalType": "uint256",
          "name": "",
          "type": "uint256"
        }
      ],
      "stateMutability": "view",
      "type": "function"
    },
    {
      "inputs": [
        {
          "internalType": "uint256",
          "name": "tokenId",
          "type": "uint256"
        }
      ],
      "name": "getApproved",
      "outputs": [
        {
          "internalType": "address",
          "name": "",
          "type": "address"
        }
      ],
      "stateMutability": "view",
      "type": "function"
    },
    {
      "inputs": [
        {
          "internalType": "address",
          "name": "owner",
          "type": "address"
        },
        {
          "internalType": "address",
          "name": "operator",
          "type": "address"
        }
      ],
      "name": "isApprovedForAll",
      "outputs": [
        {
          "internalType": "bool",
          "name": "",
          "type": "bool"
        }
      ],
      "stateMutability": "view",
      "type": "function"
    },
    {
      "inputs": [
        {
          "internalType": "address",
          "name": "to",
          "type": "address"
        },
        {
          "internalType": "uint256",
          "name": "quantity",
          "type": "uint256"
        }
      ],
      "name": "mint",
      "outputs": [],
      "stateMutability": "nonpayable",
      "type": "function"
    },
    {
      "inputs": [],
      "name": "name",
      "outputs": [
        {
          "internalType": "string",
          "name": "",
          "type": "string"
        }
      ],
      "stateMutability": "view",
      "type": "function"
    },
    {
      "inputs": [
        {
          "internalType": "uint256",
          "name": "tokenId",
          "type": "uint256"
        }
      ],
      "name": "ownerOf",
      "outputs": [
        {
          "internalType": "address",
          "name": "",
          "type": "address"
        }
      ],
      "stateMutability": "view",
      "type": "function"
    },
    {
      "inputs": [
        {
          "internalType": "address",
          "name": "from",
          "type": "address"
        },
        {
          "internalType": "address",
          "name": "to",
          "type": "address"
        },
        {
          "internalType": "uint256",
          "name": "tokenId",
          "type": "uint256"
        }
      ],
      "name": "safeTransferFrom",
      "outputs": [],
      "stateMutability": "payable",
      "type": "function"
    },
    {
      "inputs": [
        {
          "internalType": "address",
          "name": "from",
          "type": "address"
        },
        {
          "internalType": "address",
          "name": "to",
          "type": "address"
        },
        {
          "internalType": "uint256",
          "name": "tokenId",
          "type": "uint256"
        },
        {
          "internalType": "bytes",
          "name": "_data",
          "type": "bytes"
        }
      ],
      "name": "safeTransferFrom",
      "outputs": [],
      "stateMutability": "payable",
      "type": "function"
    },
    {
      "inputs": [
        {
          "internalType": "address",
          "name": "operator",
          "type": "address"
        },
        {
          "internalType": "bool",
          "name": "approved",
          "type": "bool"
        }
      ],
      "name": "setApprovalForAll",
      "outputs": [],
      "stateMutability": "nonpayable",
      "type": "function"
    },
    {
      "inputs": [
        {
          "internalType": "bytes4",
          "name": "interfaceId",
          "type": "bytes4"
        }
      ],
      "name": "supportsInterface",
      "outputs": [
        {
          "internalType": "bool",
          "name": "",
          "type": "bool"
        }
      ],
      "stateMutability": "view",
      "type": "function"
    },
    {
      "inputs": [],
      "name": "symbol",
      "outputs": [
        {
          "internalType": "string",
          "name": "",
          "type": "string"
        }
      ],
      "stateMutability": "view",
      "type": "function"
    },
    {
      "inputs": [
        {
          "internalType": "uint256",
          "name": "tokenId",
          "type": "uint256"
        }
      ],
      "name": "tokenURI",
      "outputs": [
        {
          "internalType": "string",
          "name": "",
          "type": "string"
        }
      ],
      "stateMutability": "view",
      "type": "function"
    },
    {
      "inputs": [],
      "name": "totalSupply",
      "outputs": [
        {
          "internalType": "uint256",
          "name": "result",
          "type": "uint256"
        }
      ],
      "stateMutability": "view",
      "type": "function"
    },
    {
      "inputs": [
        {
          "internalType": "address",
          "name": "from",
          "type": "address"
        },
        {
          "internalType": "address",
          "name": "to",
          "type": "address"
        },
        {
          "internalType": "uint256",
          "name": "tokenId",
          "type": "uint256"
        }
      ],
      "name": "transferFrom",
      "outputs": [],
      "stateMutability": "payable",
      "type": "function"
    }
  ],
  "bytecode": "0x60806040523480156200001157600080fd5b506040518060400160405280600d81526020017f467265654d696e74546f6b656e000000000000000000000000000000000000008152506040518060400160405280600381526020017f464d54000000000000000000000000000000000000000000000000000000000081525081600290816200008f9190620003b1565b508060039081620000a19190620003b1565b50620000b26200010060201b60201c565b600081905550620000c86200010060201b60201c565b620000d86200010560201b60201c565b1015620000f857620000f763fed8210f60e01b6200012d60201b60201c565b5b505062000498565b600090565b60007fffffffffffffffffffffffffffffffffffffffffffffffffffffffffffffffff905090565b8060005260046000fd5b600081519050919050565b7f4e487b7100000000000000000000000000000000000000000000000000000000600052604160045260246000fd5b7f4e487b7100000000000000000000000000000000000000000000000000000000600052602260045260246000fd5b60006002820490506001821680620001b957607f821691505b602082108103620001cf57620001ce62000171565b5b50919050565b60008190508160005260206000209050919050565b60006020601f8301049050919050565b600082821b905092915050565b600060088302620002397fffffffffffffffffffffffffffffffffffffffffffffffffffffffffffffffff82620001fa565b620002458683620001fa565b95508019841693508086168417925050509392505050565b6000819050919050565b6000819050919050565b6000620002926200028c62000286846200025d565b62000267565b6200025d565b9050919050565b6000819050919050565b620002ae8362000271565b620002c6620002bd8262000299565b84845462000207565b825550505050565b600090565b620002dd620002ce565b620002ea818484620002a3565b505050565b5b81811015620003125762000306600082620002d3565b600181019050620002f0565b5050565b601f82111562000361576200032b81620001d5565b6200033684620001ea565b8101602085101562000346578190505b6200035e6200035585620001ea565b830182620002ef565b50505b505050565b600082821c905092915050565b6000620003866000198460080262000366565b1980831691505092915050565b6000620003a1838362000373565b9150826002028217905092915050565b620003bc8262000137565b67ffffffffffffffff811115620003d857620003d762000142565b5b620003e48254620001a0565b620003f182828562000316565b600060209050601f83116001811462000429576000841562000414578287015190505b62000420858262000393565b86555062000490565b601f1984166200043986620001d5565b60005b8281101562000463578489015182556001820191506020850194506020810190506200043c565b868310156200048357848901516200047f601f89168262000373565b8355505b6001600288020188555050505b505050505050565b611e8380620004a86000396000f3fe6080604052600436106100fe5760003560e01c806342842e0e11610095578063a22cb46511610064578063a22cb46514610320578063b88d4fde14610349578063c87b56dd14610365578063e471ae0a146103a2578063e985e9c5146103cd576100fe565b806342842e0e1461025f5780636352211e1461027b57806370a08231146102b857806395d89b41146102f5576100fe565b806318160ddd116100d157806318160ddd146101c457806323b872dd146101ef57806332cb6b0c1461020b57806340c10f1914610236576100fe565b806301ffc9a71461010357806306fdde0314610140578063081812fc1461016b578063095ea7b3146101a8575b600080fd5b34801561010f57600080fd5b5061012a600480360381019061012591906115c2565b61040a565b604051610137919061160a565b60405180910390f35b34801561014c57600080fd5b5061015561049c565b60405161016291906116b5565b60405180910390f35b34801561017757600080fd5b50610192600480360381019061018d919061170d565b61052e565b60405161019f919061177b565b60405180910390f35b6101c260048036038101906101bd91906117c2565b61058c565b005b3480156101d057600080fd5b506101d961059c565b6040516101e69190611811565b60405180910390f35b6102096004803603810190610204919061182c565b6105e9565b005b34801561021757600080fd5b506102206108aa565b60405161022d9190611811565b60405180910390f35b34801561024257600080fd5b5061025d600480360381019061025891906117c2565b6108b0565b005b6102796004803603810190610274919061182c565b61096c565b005b34801561028757600080fd5b506102a2600480360381019061029d919061170d565b61098c565b6040516102af919061177b565b60405180910390f35b3480156102c457600080fd5b506102df60048036038101906102da919061187f565b61099e565b6040516102ec9190611811565b60405180910390f35b34801561030157600080fd5b5061030a610a35565b60405161031791906116b5565b60405180910390f35b34801561032c57600080fd5b50610347600480360381019061034291906118d8565b610ac7565b005b610363600480360381019061035e9190611a4d565b610bd2565b005b34801561037157600080fd5b5061038c6004803603810190610387919061170d565b610c24565b60405161039991906116b5565b60405180910390f35b3480156103ae57600080fd5b506103b7610ca1565b6040516103c49190611811565b60405180910390f35b3480156103d957600080fd5b506103f460048036038101906103ef9190611ad0565b610ca6565b604051610401919061160a565b60405180910390f35b60006301ffc9a760e01b827bffffffffffffffffffffffffffffffffffffffffffffffffffffffff1916148061046557506380ac58cd60e01b827bffffffffffffffffffffffffffffffffffffffffffffffffffffffff1916145b806104955750635b5e139f60e01b827bffffffffffffffffffffffffffffffffffffffffffffffffffffffff1916145b9050919050565b6060600280546104ab90611b3f565b80601f01602080910402602001604051908101604052809291908181526020018280546104d790611b3f565b80156105245780601f106104f957610100808354040283529160200191610524565b820191906000526020600020905b81548152906001019060200180831161050757829003601f168201915b5050505050905090565b600061053982610d3a565b61054e5761054d63cf4700e460e01b610de6565b5b6006600083815260200190815260200160002060000160009054906101000a900473ffffffffffffffffffffffffffffffffffffffff169050919050565b61059882826001610df0565b5050565b60006105a6610f1f565b600154600054030390507fffffffffffffffffffffffffffffffffffffffffffffffffffffffffffffffff6105d9610f24565b146105e657600854810190505b90565b60006105f482610f4c565b905073ffffffffffffffffffffffffffffffffffffffff8473ffffffffffffffffffffffffffffffffffffffff161693508373ffffffffffffffffffffffffffffffffffffffff168173ffffffffffffffffffffffffffffffffffffffff16146106695761066863a114810060e01b610de6565b5b60008061067584611065565b9150915061068b818761068661108c565b611094565b6106b6576106a08661069b61108c565b610ca6565b6106b5576106b46359c896be60e01b610de6565b5b5b6106c386868660016110d8565b80156106ce57600082555b600560008773ffffffffffffffffffffffffffffffffffffffff1673ffffffffffffffffffffffffffffffffffffffff168152602001908152602001600020600081546001900391905081905550600560008673ffffffffffffffffffffffffffffffffffffffff1673ffffffffffffffffffffffffffffffffffffffff168152602001908152602001600020600081546001019190508190555061079c856107788888876110de565b7c020000000000000000000000000000000000000000000000000000000017611106565b600460008681526020019081526020016000208190555060007c0200000000000000000000000000000000000000000000000000000000841603610822576000600185019050600060046000838152602001908152602001600020540361082057600054811461081f578360046000838152602001908152602001600020819055505b5b505b600073ffffffffffffffffffffffffffffffffffffffff8673ffffffffffffffffffffffffffffffffffffffff161690508481887fddf252ad1be2c89b69c2b068fc378daa952ba7f163c4a11628f55a4df523b3ef600080a4600081036108945761089363ea553b3460e01b610de6565b5b6108a18787876001611131565b50505050505050565b61271081565b612710816108bc611137565b6108c69190611b9f565b1115610907576040517f08c379a00000000000000000000000000000000000000000000000000000000081526004016108fe90611c1f565b60405180910390fd5b60648161091384611180565b61091d9190611b9f565b111561095e576040517f08c379a000000000000000000000000000000000000000000000000000000000815260040161095590611c8b565b60405180910390fd5b61096882826111d7565b5050565b61098783838360405180602001604052806000815250610bd2565b505050565b600061099782610f4c565b9050919050565b60008073ffffffffffffffffffffffffffffffffffffffff168273ffffffffffffffffffffffffffffffffffffffff16036109e4576109e3638f4eb60460e01b610de6565b5b67ffffffffffffffff600560008473ffffffffffffffffffffffffffffffffffffffff1673ffffffffffffffffffffffffffffffffffffffff16815260200190815260200160002054169050919050565b606060038054610a4490611b3f565b80601f0160208091040260200160405190810160405280929190818152602001828054610a7090611b3f565b8015610abd5780601f10610a9257610100808354040283529160200191610abd565b820191906000526020600020905b815481529060010190602001808311610aa057829003601f168201915b5050505050905090565b8060076000610ad461108c565b73ffffffffffffffffffffffffffffffffffffffff1673ffffffffffffffffffffffffffffffffffffffff16815260200190815260200160002060008473ffffffffffffffffffffffffffffffffffffffff1673ffffffffffffffffffffffffffffffffffffffff16815260200190815260200160002060006101000a81548160ff0219169083151502179055508173ffffffffffffffffffffffffffffffffffffffff16610b8161108c565b73ffffffffffffffffffffffffffffffffffffffff167f17307eab39ab6107e8899845ad3d59bd9653f200f220920489ca2b5937696c3183604051610bc6919061160a565b60405180910390a35050565b610bdd8484846105e9565b60008373ffffffffffffffffffffffffffffffffffffffff163b14610c1e57610c088484848461135d565b610c1d57610c1c63d1a57ed660e01b610de6565b5b5b50505050565b6060610c2f82610d3a565b610c4457610c4363a14c4b5060e01b610de6565b5b6000610c4e61148c565b90506000815103610c6e5760405180602001604052806000815250610c99565b80610c78846114ac565b604051602001610c89929190611ce7565b6040516020818303038152906040525b915050919050565b606481565b6000600760008473ffffffffffffffffffffffffffffffffffffffff1673ffffffffffffffffffffffffffffffffffffffff16815260200190815260200160002060008373ffffffffffffffffffffffffffffffffffffffff1673ffffffffffffffffffffffffffffffffffffffff16815260200190815260200160002060009054906101000a900460ff16905092915050565b600081610d45610f1f565b11610de057610d52610f24565b821115610d7c57610d7560046000848152602001908152602001600020546114fc565b9050610de1565b600054821015610ddf5760005b6000600460008581526020019081526020016000205491508103610db85782610db190611d0b565b9250610d89565b60007c01000000000000000000000000000000000000000000000000000000008216149150505b5b5b919050565b8060005260046000fd5b6000610dfb8361098c565b9050818015610e3d57508073ffffffffffffffffffffffffffffffffffffffff16610e2461108c565b73ffffffffffffffffffffffffffffffffffffffff1614155b15610e6957610e5381610e4e61108c565b610ca6565b610e6857610e6763cfb3b94260e01b610de6565b5b5b836006600085815260200190815260200160002060000160006101000a81548173ffffffffffffffffffffffffffffffffffffffff021916908373ffffffffffffffffffffffffffffffffffffffff160217905550828473ffffffffffffffffffffffffffffffffffffffff168273ffffffffffffffffffffffffffffffffffffffff167f8c5be1e5ebec7d5bd14f71427d1e84f3dd0314c0f7b2291e5b200ac8c7c3b92560405160405180910390a450505050565b600090565b60007fffffffffffffffffffffffffffffffffffffffffffffffffffffffffffffffff905090565b600081610f57610f1f565b1161104f5760046000838152602001908152602001600020549050610f7a610f24565b821115610f9f57610f8a816114fc565b61106057610f9e63df2d9b4260e01b610de6565b5b60008103611026576000548210610fc157610fc063df2d9b4260e01b610de6565b5b5b600460008360019003935083815260200190815260200160002054905060008103156110215760007c0100000000000000000000000000000000000000000000000000000000821603156110605761102063df2d9b4260e01b610de6565b5b610fc2565b60007c010000000000000000000000000000000000000000000000000000000082160315611060575b61105f63df2d9b4260e01b610de6565b5b919050565b60008060006006600085815260200190815260200160002090508092508254915050915091565b600033905090565b600073ffffffffffffffffffffffffffffffffffffffff8316925073ffffffffffffffffffffffffffffffffffffffff821691508382148383141790509392505050565b50505050565b60008060e883901c905060e86110f586868461153d565b62ffffff16901b9150509392505050565b600073ffffffffffffffffffffffffffffffffffffffff83169250814260a01b178317905092915050565b50505050565b6000611141610f1f565b6000540390507fffffffffffffffffffffffffffffffffffffffffffffffffffffffffffffffff611170610f24565b1461117d57600854810190505b90565b600067ffffffffffffffff6040600560008573ffffffffffffffffffffffffffffffffffffffff1673ffffffffffffffffffffffffffffffffffffffff16815260200190815260200160002054901c169050919050565b600080549050600082036111f6576111f563b562e8dd60e01b610de6565b5b61120360008483856110d8565b6112238361121460008660006110de565b61121d85611546565b17611106565b6004600083815260200190815260200160002081905550600160406001901b178202600560008573ffffffffffffffffffffffffffffffffffffffff1673ffffffffffffffffffffffffffffffffffffffff16815260200190815260200160002060008282540192505081905550600073ffffffffffffffffffffffffffffffffffffffff8473ffffffffffffffffffffffffffffffffffffffff16169050600081036112db576112da632e07630060e01b610de6565b5b6000838301905060008390506112ef610f24565b60018303111561130a576113096381647e3a60e01b610de6565b5b5b808360007fddf252ad1be2c89b69c2b068fc378daa952ba7f163c4a11628f55a4df523b3ef600080a481816001019150810361130b57816000819055505050506113586000848385611131565b505050565b60008373ffffffffffffffffffffffffffffffffffffffff1663150b7a0261138361108c565b8786866040518563ffffffff1660e01b81526004016113a59493929190611d89565b6020604051808303816000875af19250505080156113e157506040513d601f19601f820116820180604052508101906113de9190611dea565b60015b611439573d8060008114611411576040519150601f19603f3d011682016040523d82523d6000602084013e611416565b606091505b5060008151036114315761143063d1a57ed660e01b610de6565b5b805181602001fd5b63150b7a0260e01b7bffffffffffffffffffffffffffffffffffffffffffffffffffffffff1916817bffffffffffffffffffffffffffffffffffffffffffffffffffffffff191614915050949350505050565b6060604051806060016040528060368152602001611e1860369139905090565b606060a060405101806040526020810391506000825281835b6001156114e757600184039350600a81066030018453600a81049050806114c5575b50828103602084039350808452505050919050565b60007c0100000000000000000000000000000000000000000000000000000000821673ffffffffffffffffffffffffffffffffffffffff8316119050919050565b60009392505050565b60006001821460e11b9050919050565b6000604051905090565b600080fd5b600080fd5b60007fffffffff0000000000000000000000000000000000000000000000000000000082169050919050565b61159f8161156a565b81146115aa57600080fd5b50565b6000813590506115bc81611596565b92915050565b6000602082840312156115d8576115d7611560565b5b60006115e6848285016115ad565b91505092915050565b60008115159050919050565b611604816115ef565b82525050565b600060208201905061161f60008301846115fb565b92915050565b600081519050919050565b600082825260208201905092915050565b60005b8381101561165f578082015181840152602081019050611644565b60008484015250505050565b6000601f19601f8301169050919050565b600061168782611625565b6116918185611630565b93506116a1818560208601611641565b6116aa8161166b565b840191505092915050565b600060208201905081810360008301526116cf818461167c565b905092915050565b6000819050919050565b6116ea816116d7565b81146116f557600080fd5b50565b600081359050611707816116e1565b92915050565b60006020828403121561172357611722611560565b5b6000611731848285016116f8565b91505092915050565b600073ffffffffffffffffffffffffffffffffffffffff82169050919050565b60006117658261173a565b9050919050565b6117758161175a565b82525050565b6000602082019050611790600083018461176c565b92915050565b61179f8161175a565b81146117aa57600080fd5b50565b6000813590506117bc81611796565b92915050565b600080604083850312156117d9576117d8611560565b5b60006117e7858286016117ad565b92505060206117f8858286016116f8565b9150509250929050565b61180b816116d7565b82525050565b60006020820190506118266000830184611802565b92915050565b60008060006060848603121561184557611844611560565b5b6000611853868287016117ad565b9350506020611864868287016117ad565b9250506040611875868287016116f8565b9150509250925092565b60006020828403121561189557611894611560565b5b60006118a3848285016117ad565b91505092915050565b6118b5816115ef565b81146118c057600080fd5b50565b6000813590506118d2816118ac565b92915050565b600080604083850312156118ef576118ee611560565b5b60006118fd858286016117ad565b925050602061190e858286016118c3565b9150509250929050565b600080fd5b600080fd5b7f4e487b7100000000000000000000000000000000000000000000000000000000600052604160045260246000fd5b61195a8261166b565b810181811067ffffffffffffffff8211171561197957611978611922565b5b80604052505050565b600061198c611556565b90506119988282611951565b919050565b600067ffffffffffffffff8211156119b8576119b7611922565b5b6119c18261166b565b9050602081019050919050565b82818337600083830152505050565b60006119f06119eb8461199d565b611982565b905082815260208101848484011115611a0c57611a0b61191d565b5b611a178482856119ce565b509392505050565b600082601f830112611a3457611a33611918565b5b8135611a448482602086016119dd565b91505092915050565b60008060008060808587031215611a6757611a66611560565b5b6000611a75878288016117ad565b9450506020611a86878288016117ad565b9350506040611a97878288016116f8565b925050606085013567ffffffffffffffff811115611ab857611ab7611565565b5b611ac487828801611a1f565b91505092959194509250565b60008060408385031215611ae757611ae6611560565b5b6000611af5858286016117ad565b9250506020611b06858286016117ad565b9150509250929050565b7f4e487b7100000000000000000000000000000000000000000000000000000000600052602260045260246000fd5b60006002820490506001821680611b5757607f821691505b602082108103611b6a57611b69611b10565b5b50919050565b7f4e487b7100000000000000000000000000000000000000000000000000000000600052601160045260246000fd5b6000611baa826116d7565b9150611bb5836116d7565b9250828201905080821115611bcd57611bcc611b70565b5b92915050565b7f4e6f74206d6f726520737570706c79206c656674000000000000000000000000600082015250565b6000611c09601483611630565b9150611c1482611bd3565b602082019050919050565b60006020820190508181036000830152611c3881611bfc565b9050919050565b7f55736572206c696d697420726561636865640000000000000000000000000000600082015250565b6000611c75601283611630565b9150611c8082611c3f565b602082019050919050565b60006020820190508181036000830152611ca481611c68565b9050919050565b600081905092915050565b6000611cc182611625565b611ccb8185611cab565b9350611cdb818560208601611641565b80840191505092915050565b6000611cf38285611cb6565b9150611cff8284611cb6565b91508190509392505050565b6000611d16826116d7565b915060008203611d2957611d28611b70565b5b600182039050919050565b600081519050919050565b600082825260208201905092915050565b6000611d5b82611d34565b611d658185611d3f565b9350611d75818560208601611641565b611d7e8161166b565b840191505092915050565b6000608082019050611d9e600083018761176c565b611dab602083018661176c565b611db86040830185611802565b8181036060830152611dca8184611d50565b905095945050505050565b600081519050611de481611596565b92915050565b600060208284031215611e0057611dff611560565b5b6000611e0e84828501611dd5565b9150509291505056fe697066733a2f2f516d576951453635746d70597a636f6b436865516d6e673244434d33334445686a586350423650616e7770415a6f2fa26469706673582212205f1cce90af09104715313e7147ca05c428740bc7634191705dadf36d9bb86b6b64736f6c63430008130033",
  "linkReferences": {},
  "deployedLinkReferences": {}
}